{
  "contractName": "SquareVerifier",
  "abi": [
    {
      "constant": true,
      "inputs": [
        {
          "internalType": "uint256[2]",
          "name": "a",
          "type": "uint256[2]"
        },
        {
          "internalType": "uint256[2][2]",
          "name": "b",
          "type": "uint256[2][2]"
        },
        {
          "internalType": "uint256[2]",
          "name": "c",
          "type": "uint256[2]"
        },
        {
          "internalType": "uint256[2]",
          "name": "input",
          "type": "uint256[2]"
        }
      ],
      "name": "verifyTx",
      "outputs": [
        {
          "internalType": "bool",
          "name": "r",
          "type": "bool"
        }
      ],
      "payable": false,
      "stateMutability": "view",
      "type": "function"
    }
  ],
  "bytecode": "0x608060405234801561001057600080fd5b50611089806100206000396000f3fe608060405234801561001057600080fd5b506004361061002b5760003560e01c8063621e9ec014610030575b600080fd5b61018f600480360361014081101561004757600080fd5b8101908080604001906002806020026040519081016040528092919082600260200280828437600081840152601f19601f82011690508083019250505050505091929192908060800190600280602002604051908101604052809291906000905b828210156100fc578382604002016002806020026040519081016040528092919082600260200280828437600081840152601f19601f820116905080830192505050505050815260200190600101906100a8565b50505050919291929080604001906002806020026040519081016040528092919082600260200280828437600081840152601f19601f820116905080830192505050505050919291929080604001906002806020026040519081016040528092919082600260200280828437600081840152601f19601f82011690508083019250505050505091929192905050506101a9565b604051808215151515815260200191505060405180910390f35b60006101b3610ef8565b6040518060400160405280876000600281106101cb57fe5b60200201518152602001876001600281106101e257fe5b60200201518152508160000181905250604051806040016040528060405180604001604052808860006002811061021557fe5b602002015160006002811061022657fe5b602002015181526020018860006002811061023d57fe5b602002015160016002811061024e57fe5b6020020151815250815260200160405180604001604052808860016002811061027357fe5b602002015160006002811061028457fe5b602002015181526020018860016002811061029b57fe5b60200201516001600281106102ac57fe5b602002015181525081525081602001819052506040518060400160405280856000600281106102d757fe5b60200201518152602001856001600281106102ee57fe5b60200201518152508160400181905250606060026040519080825280602002602001820160405280156103305781602001602082028038833980820191505090505b50905060008090505b60028110156103785784816002811061034e57fe5b602002015182828151811061035f57fe5b6020026020010181815250508080600101915050610339565b50600061038582846103a5565b14156103965760019250505061039d565b6000925050505b949350505050565b6000807f30644e72e131a029b85045b68181585d2833e84879b9709143e1f593f000000190506103d3610f2b565b6103db610517565b90508060800151516001865101146103f257600080fd5b6103fa610f72565b6040518060400160405280600081526020016000815250905060008090505b8651811015610490578387828151811061042f57fe5b60200260200101511061044157600080fd5b6104818261047c8560800151600185018151811061045b57fe5b60200260200101518a858151811061046f57fe5b6020026020010151610964565b6109f6565b91508080600101915050610419565b506104b38183608001516000815181106104a657fe5b60200260200101516109f6565b90506104f9856000015186602001516104cb84610aa7565b85604001516104dd8a60400151610aa7565b87606001516104ef8960000151610aa7565b8960200151610b41565b6105095760019350505050610511565b600093505050505b92915050565b61051f610f2b565b60405180604001604052807f1936c240636390dc823e3a728e94b208eb53c6756d81da57ec3425e05d43ac1081526020017f2d70ff78e8216bf29d58923a686d9738278b8ce2fd822e197c85b09286d155668152508160000181905250604051806040016040528060405180604001604052807f29c13ecb6f33dbc4b3b8a02e2e255511ce4c26a8a2f299efcc94caf2de4fce0081526020017f2b4daf047abe2e7f0b311118c1b963b63695dc0d769cea78849604434de055bf815250815260200160405180604001604052807f25ea0d7e2b29de431b86a943db30dbf4d98f68df9ca8a9628d14d1591e817d9081526020017f1da9020008df7f549751f8a251af3b2dc4a2ad3e0870de54acaedd9fc1b47e178152508152508160200181905250604051806040016040528060405180604001604052807ee83c788c2878d1d5eba3ed49b0d81e4c0487dedc3e4d1c2baab5833785b62f81526020017f011016e22ae045444f50fb80f246ec486c7e02af09132cd38c4fcf484983e4f2815250815260200160405180604001604052807f132a90a3b0d369ccd66e2a5ba04a935e44d8ad5dca93a76bba592a578130a91181526020017f05eb89e741ed5b5d611cebf92d1ed02cd6f3311089f0d400df7d9ced5a48fd418152508152508160400181905250604051806040016040528060405180604001604052807f0c3b60f59d3bd50328a04c0ff6d979199685d0526f89f6ac29d6174ce24707a281526020017f065f6a3323a2abffd621fc263f348eb914904b68d5897729ae34a6b9d33f0852815250815260200160405180604001604052807f12e0f3721230a0f38f6c9913048d5230fd2615ef3ff7f6ee4b20dfe0bdea1a8681526020017f26e7ebce2b44efef6b6315938e33f0a8ecc82dbad635c9efa681ed85bbb599828152508152508160600181905250600360405190808252806020026020018201604052801561080557816020015b6107f2610f8c565b8152602001906001900390816107ea5790505b50816080018190525060405180604001604052807f1ef8d5d70234aa3e3d8fc4e3f1ca01c703182580b581106798f05b35fd5082c081526020017f2e468046d4ae35138e2032224925d5389712e5ca5e68f4d9c1e1858e7d65602d815250816080015160008151811061087457fe5b602002602001018190525060405180604001604052807f0cefae0e3fa6aa25a4485ab7b21d32794d3431a4e4a5ca82ea427b831534c2c981526020017f23e3d2035b70884e547638b111870f5957f58ad8068f7a21470164ad361e1e8881525081608001516001815181106108e557fe5b602002602001018190525060405180604001604052807f030ffe78ec3de150e8688db619bde78e21e894754e6be5ed83742677628b24bc81526020017f053392f88cfa9092dfbc0bd199d8159e56207779473c24fc601eff91bcd345ca815250816080015160028151811061095657fe5b602002602001018190525090565b61096c610f72565b610974610fa6565b83600001518160006003811061098657fe5b6020020181815250508360200151816001600381106109a157fe5b60200201818152505082816002600381106109b857fe5b602002018181525050600060608360808460076107d05a03fa905080600081146109e1576109e3565bfe5b50806109ee57600080fd5b505092915050565b6109fe610f72565b610a06610fc8565b836000015181600060048110610a1857fe5b602002018181525050836020015181600160048110610a3357fe5b602002018181525050826000015181600260048110610a4e57fe5b602002018181525050826020015181600360048110610a6957fe5b602002018181525050600060608360c08460066107d05a03fa90508060008114610a9257610a94565bfe5b5080610a9f57600080fd5b505092915050565b610aaf610f72565b60007f30644e72e131a029b85045b68181585d97816a916871ca8d3c208c16d87cfd47905060008360000151148015610aec575060008360200151145b15610b10576040518060400160405280600081526020016000815250915050610b3c565b60405180604001604052808460000151815260200182856020015181610b3257fe5b0683038152509150505b919050565b600060606004604051908082528060200260200182016040528015610b8057816020015b610b6d610f8c565b815260200190600190039081610b655790505b50905060606004604051908082528060200260200182016040528015610bc057816020015b610bad610fea565b815260200190600190039081610ba55790505b5090508a82600081518110610bd157fe5b60200260200101819052508882600181518110610bea57fe5b60200260200101819052508682600281518110610c0357fe5b60200260200101819052508482600381518110610c1c57fe5b60200260200101819052508981600081518110610c3557fe5b60200260200101819052508781600181518110610c4e57fe5b60200260200101819052508581600281518110610c6757fe5b60200260200101819052508381600381518110610c8057fe5b6020026020010181905250610c958282610ca5565b9250505098975050505050505050565b60008151835114610cb557600080fd5b6000835190506000600682029050606081604051908082528060200260200182016040528015610cf45781602001602082028038833980820191505090505b50905060008090505b83811015610e9a57868181518110610d1157fe5b602002602001015160000151826000600684020181518110610d2f57fe5b602002602001018181525050868181518110610d4757fe5b602002602001015160200151826001600684020181518110610d6557fe5b602002602001018181525050858181518110610d7d57fe5b602002602001015160000151600160028110610d9557fe5b6020020151826002600684020181518110610dac57fe5b602002602001018181525050858181518110610dc457fe5b602002602001015160000151600060028110610ddc57fe5b6020020151826003600684020181518110610df357fe5b602002602001018181525050858181518110610e0b57fe5b602002602001015160200151600160028110610e2357fe5b6020020151826004600684020181518110610e3a57fe5b602002602001018181525050858181518110610e5257fe5b602002602001015160200151600060028110610e6a57fe5b6020020151826005600684020181518110610e8157fe5b6020026020010181815250508080600101915050610cfd565b50610ea3611010565b6000602082602086026020860160086107d05a03fa90508060008114610ec857610eca565bfe5b5080610ed557600080fd5b600082600060018110610ee457fe5b602002015114159550505050505092915050565b6040518060600160405280610f0b610f8c565b8152602001610f18610fea565b8152602001610f25610f8c565b81525090565b6040518060a00160405280610f3e610f8c565b8152602001610f4b610fea565b8152602001610f58610fea565b8152602001610f65610fea565b8152602001606081525090565b604051806040016040528060008152602001600081525090565b604051806040016040528060008152602001600081525090565b6040518060600160405280600390602082028038833980820191505090505090565b6040518060800160405280600490602082028038833980820191505090505090565b6040518060400160405280610ffd611032565b815260200161100a611032565b81525090565b6040518060200160405280600190602082028038833980820191505090505090565b604051806040016040528060029060208202803883398082019150509050509056fea265627a7a723158203337495e1ac21c72ef5627dbd93886085566610c027057bc8d8c99635041fb2164736f6c63430005100032",
  "source": "pragma solidity >=0.4.21 <0.6.0;\n\nimport './Verifier.sol';\nimport './ERC721Mintable.sol';\n\n// TODO define a contract call to the zokrates generated solidity contract <Verifier> or <renamedVerifier>\ncontract SquareVerifier is Verifier {\n\n}\n\n// TODO define another contract named SolnSquareVerifier that inherits from your ERC721Mintable class\ncontract SolnSquareVerifier is MyMintableERC721Token \n{\n  SquareVerifier private _verifier;\n\n  constructor(address verifierAddress) public {\n    _verifier = SquareVerifier(verifierAddress);\n  }\n\n// TODO define a solutions struct that can hold an index & an address\n  struct Solution {\n    uint256 index;\n    address to;\n  }\n\n// TODO define an array of the above struct\n  Solution[] private _solutions;\n\n// TODO define a mapping to store unique solutions submitted\n  mapping (bytes32 => Solution) private _uniqueSolutions;\n\n// TODO Create an event to emit when a solution is added\n  event SolutionAdded(uint256 tokenId, address to);\n\n  function getUniqueSolutionAddress(bytes32 uniqueKey) public view returns (address) {\n    return _uniqueSolutions[uniqueKey].to;\n  }\n\n  function createUniqueKey(uint[2] memory a, uint[2][2] memory b, uint[2] memory c, uint[2] memory input) pure public returns (bytes32) {\n    return keccak256(abi.encodePacked(a, b, c, input));\n  }\n\n// TODO Create a function to add the solutions to the array and emit the event\n  function addSolution(uint256 tokenId, address to, bytes32 uniqueKey) public {\n    Solution memory solution = Solution({ index: tokenId, to: to });\n\n    _solutions.push(solution);\n    _uniqueSolutions[uniqueKey] = solution;\n\n    emit SolutionAdded(tokenId, to);\n  }\n\n\n// TODO Create a function to mint new NFT only after the solution has been verified\n//  - make sure the solution is unique (has not been used before)\n//  - make sure you handle metadata as well as tokenSuplly\n  function mintWithVerification(uint256 tokenId, address to, uint[2] memory a, uint[2][2] memory b, uint[2] memory c, uint[2] memory input) public {\n    bytes32 uniqueKey = createUniqueKey(a, b, c, input);\n    require(_uniqueSolutions[uniqueKey].to == address(0), \"Unique solution address not empty\");\n    require(_verifier.verifyTx(a, b, c, input), \"Solution is wrong.\");\n\n    addSolution(tokenId, to, uniqueKey);\n    super.mint(to, tokenId);\n  }\n}",
  "sourcePath": "/Users/ismailc/Workspace/Deneme/Blockchain-Capstone/eth-contracts/contracts/SolnSquareVerifier.sol",
  "compiler": {
    "name": "solc",
    "version": "0.5.16+commit.9c3226ce.Emscripten.clang"
  },
  "schemaVersion": "3.3.0",
  "updatedAt": "2020-12-15T20:09:35.171Z",
  "networkType": "ethereum",
  "devdoc": {
    "methods": {}
  },
  "userdoc": {
    "methods": {}
  }
}